:100000000CC1B9C225C124C123C122C121C120C153
:100010001FC11EC11DC11CC11BC11AC119C118C1FC
:1000200017C116C115C114C113C112C111C110C12C
:100030000FC10EC1C0C8C1C8C4C8C5C8E4C8E5C89E
:10004000B2C8B1C8B0C8AFC8E2C8E3C8E6C8E7C81C
:10005000E8C8EBC8A8C8EBC8A6C8A5C8A4C8A3C868
:10006000A2C8A1C8A0C89FC89EC89DC89CC89BC85C
:100070009AC899C898C897C896C895C894C893C88C
:1000800092C891C890C88FC88EC88DC88CC88BC8BC
:100090008AC889C888C887C886C885C884C883C8EC
:1000A00082C881C880C87FC87EC87DC87CC87BC81C
:1000B0007AC879C878C877C876C875C874C873C84C
:1000C00072C871C870C86FC86EC86DC86CC86BC87C
:1000D0006AC869C868C867C866C865C864C863C8AC
:1000E00062C861C860C85FC85EC8A3C8A4C861C848
:1000F000FECAD2CA1DCBEFCAF0CA06CB14CB0CCBBA
:10010000C9CA2CCB1CCBEECAF7CA23CB1FCBC2CAA1
:10011000DFCCE3CCEACC11CD35CDC1CCC0CC3CCDCD
:100120003FCD4ACD57CD96CD57CE56CE62CE6FCE6F
:100130006ECE7ACE87CE8CCE91CED7CCCCCC0403EB
:1001400009045C03620065006100760065007200CE
:1001500073006F0075007200630065002E006F0071
:100160007200650067006F006E007300740061002C
:10017000740065002E006500640075002F0070009B
:1001800072006F006A0065006300740073002F0046
:100190006F00730075006900730070003200100377
:1001A0004F005300550069007300700032001201C7
:1001B000100100000008C016DF0500010102000167
:1001C0000902220001010080190904000001030056
:1001D0000000092101010001223800070581030800
:1001E00000640600FF0901A1018501090075089559
:1001F00008150026FF00B202018502090075089566
:1002000010150026FF00B20201850309007508954C
:10021000FA150026FF00B20201C011241FBECFEF65
:10022000D4E0DEBFCDBF11E0A0E0B1E0E6E2FFE147
:1002300002C005900D92A630B107D9F713E0A6E0F1
:10024000B1E001C01D92A63BB107E1F7D2D469CE5F
:10025000D7CEE9E6F0E0808182608083E89A8BE483
:10026000809373028AE58093720208951F93DC01E4
:10027000162F8091720284FF17C08091730298E854
:10028000892780937302912FE4E7F2E08D918193A7
:1002900091501916DCF384E792E0612F68D11C5F5E
:1002A000109372021F9108958AE580937202EBCF3A
:1002B0001F93CF93DF9360918302635067FD13C058
:1002C00080918002CCE0D0E0C81BD109C957DD4F36
:1002D00080917F028D3209F462C08091060187FD12
:1002E00084C0109283028091000184FF4AC0609113
:1002F00001016F3F09F445C0693070F168506093A7
:1003000001018091670298E889278093670268E07D
:100310008091060187FD8BC020918102309182027D
:1003200086FF6DC0A8E6B2E080E090E0F901E80F3A
:10033000F91FE491ED9301966817C1F76150862F7C
:1003400090E06F5F0196820F931F909382028093DB
:100350008102162F1C5F0BC0109201018091670271
:1003600098E8892780936702662391F614E088E66F
:1003700092E0FDD01C3019F08FEF809301011093B3
:10038000000194E183B1837031F49150D9F7109258
:10039000840210927E02DF91CF911F910895683000
:1003A00009F09FCF83EC809367028AE58093000178
:1003B000109206018881807659F59A811092700218
:1003C0008981882309F043C01092710222E080E7FE
:1003D00092E090938202809381028F81882319F4A6
:1003E0009E81921708F1922F1FC0CE012AD78F3F0E
:1003F00051F1882309F475CF1092010172CF962F25
:10040000D901E8E6F2E08D9181939150E1F796CF22
:10041000CE0183D3282F8F3F01F7888187FD30C01D
:100420009FEF80E880930601909301015ACF88E600
:1004300092E00CD4682F893008F479C08FEF809354
:1004400001011EE19CCF8EE1809300014ACF8530EF
:1004500089F08630B9F0883031F1893041F18A3045
:1004600061F18B3019F48BE48093730220E080E714
:1004700092E0AFCF9093840220E080E792E0A9CF92
:100480009E81CFCF8B81813071F1823021F1833019
:10049000C1F0813281F1823209F441C020E080E470
:1004A000809306019ACF21E086E892E092CF909364
:1004B000860220E080E792E08CCF21E080E792E0A6
:1004C00088CF992301F58EE391E090938202809387
:1004D000810224E0E4CF80EC91E09093820280934B
:1004E000810222E2DCCF8EEA91E090938202809337
:1004F000810222E1D4CF82ED91E090938202809339
:10050000810229E0CCCF9130A9F0923039F68EE902
:1005100091E0909382028093810220E1C0CF82EE2D
:1005200091E0909382028093810228E3B8CF182F44
:100530001C5F1DCF82E491E0909382028093810240
:100540002CE5ADCFA82FB92F80E090E041E050EA34
:1005500060956F5F58F42D9138EF822797958795B6
:1005600010F0842795273F5FC8F3F3CF0895EADFA3
:100570008D939D930895CF93CFB7CF93C395189B39
:10058000E9F7189B09C0189B07C0189B05C0189B6A
:1005900003C0189B01C0A3C0DF93C0918002DD2778
:1005A000C957DD4F189B02C0DF91EBCF2F930F93FC
:1005B0001F9303B12FEF00FB20F94F933F9313B12B
:1005C0004FEF012700FB21F93BE031C04E7F012FA7
:1005D00013B1216028C0102F4D7F2260000003B1AD
:1005E00029C04B7F2460012F000013B12BC013B131
:1005F000477F28602AC04F7E03B120612CC04F7D09
:1006000013B120622FC04F7B03B1206432C0422758
:1006100003B149934FEF0000102710FB20F913B1ED
:100620001370C9F1297F91F2012700FB21F903B171
:10063000237F89F2315058F1102710FB22F913B1B2
:10064000277E79F2012700FB23F92F7C81F203B189
:10065000102710FB24F92F7971F200C013B1012784
:1006600000FB25F92F7359F200C003B1102710FBCE
:1006700026F9223040F200C013B1012700FB27F910
:10068000243028F64F77206813B10000F9CF11E02D
:100690001CBB002719C03B503195C31BD04011E053
:1006A0001CBB0881033CF9F00B34E9F020917E0279
:1006B0001981110F1213EDCF4A81441F093641F100
:1006C0000D3211F0013E29F7009385023F914F91C1
:1006D0001F910F912F91DF91CCB3C0FD4FCFCF91E0
:1006E000CFBFCF91189520918502222379F31091E5
:1006F0008302112369F534306AF130938302209329
:100700007F02109180023BE0311B3093800222C0B7
:10071000009183020130E4F40AE54F7049F430910E
:10072000000134FD19C000930001C7E6D2E018C0F3
:100730003091720234FD10C000937202C3E7D2E020
:100740000FC02795A8F45150A9F4220F0000F9CF4B
:100750004AE503C042ED01C0432FC4E1D0E032E0DE
:1007600014B11360289A14B905B120E413E05F9323
:10077000012756E005B9279520F4515021F4220FA6
:10078000F9CF012756E000003B5A05B9D0F2279572
:1007900028F4515029F4220F0000F9CF012756E028
:1007A000279505B920F4515021F4220FF9CF0127E4
:1007B00056E02991332305B921F60C7F109184026C
:1007C000110FC651D04005B911F010937E0211E00F
:1007D0001CBB016014B11C7F402F4C7F5F9100C097
:1007E00000C005B914B945B971CF982F329B09C023
:1007F000882359F41DBC9AE085E080930701892F76
:1008000008951DBC98EC83ECF8CF1DBC8630E8F44D
:1008100010920701833089F0843040F4813099F0E0
:10082000823069F781E18CBD892F0895843039F0D9
:10083000853029F783E18CBDE2CF81E08DBD82E177
:100840008CBD892F08958DBDEDCF8550D6CFFF92F9
:100850000F931F93F82E00E010E010C02B98000FAC
:100860001C990F5F2D9A809107013ED12D988091A0
:1008700007013AD11F5F183029F0FF0CF7FEEECFC9
:100880002B9AEDCF802F1F910F91FF900895982FF5
:1008900080910701882331F49EBD0DB407FEFDCF82
:1008A0008EB50895892FD3DF0895FF920F931F937C
:1008B000182F092FF62E80ECEADF802FE8DF812F3A
:1008C000E6DF8F2DE4DF8EE105D180E01F910F91EF
:1008D000FF9008950F931F938C0180EAD8DF812F3A
:1008E000D6DF802FD4DF80E0D2DF1F910F910895F3
:1008F000EF92FF920F931F937B018C01862F8170E3
:10090000880F880F880F8062C2DFD801C70129E0F5
:10091000B695A795979587952A95D1F7B8DF16953F
:100920000795F794E7948E2DB2DF80E0B0DF1F913A
:100930000F91FF90EF900895CF92DF92EF92FF9288
:100940001F936B017C01142F8CE4A1DFD701C6013A
:1009500049E0B695A795979587954A95D1F797DF82
:10096000D701C601B695A7959795879590DF80E04A
:100970008EDF1F3FD9F016BC1EE1C701B601B8DFFC
:100980008F3F69F486B58D33C0F316BC1150A9F7BB
:1009900081E01F91FF90EF90DF90CF90089580E06D
:1009A0001F91FF90EF90DF90CF9008958FE092D04D
:1009B00080E01F91FF90EF90DF90CF900895CF924D
:1009C000DF92EF92FF920F931F936B017C01042F34
:1009D000122F862F8170880F880F880F806457DF51
:1009E000D701C60169E0B695A795979587956A9551
:1009F000D1F74DDFD701C601B695A7959795879595
:100A000046DF802F44DF1123B9F00F37E9F016BC21
:100A10001EE1C701B6016CDF8F3771F486B58D33E7
:100A2000C0F316BC1150A9F781E01F910F91FF9000
:100A3000EF90DF90CF90089580E01F910F91FF908D
:100A4000EF90DF90CF9008958FE044D080E0F5CF15
:100A50000F931F930FE10FC08CB58F7B8CBD2D9A28
:100A600081E038D02D9881E035D08CB580648CBD84
:100A7000002381F001508CEA0ADF83E508DF80E083
:100A800006DF182F80E003DF133531F780E01F9178
:100A90000F91089581E01F910F9108950F931F9377
:100AA000162FA3DE082F3ED42A9A2A9881E012D06E
:100AB0002A9A112359F480910701882319F48CB5DF
:100AC00080648CBD802F1F910F91089581E002D02A
:100AD0002A98F1CF982F882331F016BC86B58C3335
:100AE000E8F39150D1F70895982F82E08093B200F7
:100AF000992349F022E08091B2008837E0F32093F7
:100B0000B2009150C1F70895982F81E08093B20010
:100B10008091B2008917E0F30895FC01808180760E
:100B2000803211F080E008958181813059F0893060
:100B3000C9F710921001868180930E0110920D0169
:100B40008FEF0895828180930F01823061F08330AE
:100B500031F0813039F789E080930E01EFCF8BEFD0
:100B600080930E01EBCF81E180930E01E7CF80915E
:100B7000BE029091BF02A091C002B091C1028093C9
:100B8000220190932301A0932401B0932501909119
:100B9000C202909326018091C302883059F08430BC
:100BA00019F090931001089583E0809308019093C9
:100BB0001001089582E08093080190931001089538
:100BC0008CE0809308018091BE029091BF029093C7
:100BD0000A018093090110920C0110920B010796F3
:100BE000969587959695879596958795809310010C
:100BF000089585D38BE087B93A98429A83E085BD02
:100C000081E08093B1002EE088E190E00FB6F89487
:100C1000A895809360000FBE209360001ADB209A95
:100C20002FEF48EB5BE0A895CA010197F1F721503F
:100C3000D1F7209878944098A8953ADBFDCF2ED331
:100C40008093110181E0809310010895CF92DF928B
:100C5000EF92FF920F931F93CF93DF936C0130912C
:100C60000E01E62E361708F4E32E20910D01222303
:100C700009F05CC01092280180910F01F601808379
:100C8000F1E0FE1508F0EFC080911001F6018183BC
:100C900042E0F42E90910801892F8250823008F4AE
:100CA00050C09C3009F486C0FE1428F54091100114
:100CB000309128019F2D232F0EC0F601E90FF11D61
:100CC000A22FB0E0A15FBE4F12968C9180839F5FF0
:100CD0002F5F9E1550F4241780F3F601E90FF11DE4
:100CE00010829F5F2F5F9E15B0F33F5F3E0DF09423
:100CF0003F0D3093280180910D018E0D80930D01E1
:100D000080910E018E1980930E01F7E0FE1510F40C
:100D1000882311F4109208018E2DDF91CF911F913D
:100D20000F91FF90EF90DF90CF900895213009F45C
:100D3000ABCFFF2490910801892F8250823008F0B8
:100D4000B0CFFE1408F092C0909128012AC0809183
:100D50000801823009F479C0809122019091230129
:100D6000B9DDF601EF0DF11D808380912201909194
:100D70002301A0912401B09125010196A11DB11D6F
:100D80008093220190932301A0932401B093250125
:100D9000909128019F5F90932801F394FE1408F02E
:100DA000AACF80912601981790F2F601EF0DF11D60
:100DB0001082EECFFE1408F09ECFE601CF0DD11DBC
:100DC000188207E020910B0130910C0109C02F5FC0
:100DD0003F4F30930C0120930B0101500F3F59F10D
:100DE0008091090190910A012817390780F718812D
:100DF00055D2992787FD9095002E02C0880F991F24
:100E00000A94E2F7182B1883E0912801F0E0E554EA
:100E1000FD4F658170E0002E02C0759567950A94BC
:100E2000E2F7617080E041E050E041D220910B0197
:100E300030910C01CCCF809128018F5F80932801E5
:100E4000F394FE1408F4B9CF56CF6091220170914B
:100E5000230180912401909125014ADDF601EF0DD7
:100E6000F11D808382CFFF24F39414CF2E0D2093A5
:100E70000D013E1930930E014DCFCF93DF9380913A
:100E8000BE029091BF0290930A0180930901892BC1
:100E900031F1C0E0D0E0CE01969587959695879583
:100EA000969587958E5FE82FF0E0E554FD4F6381BE
:100EB00070E09E012095822F877002C0759567951E
:100EC0008A95E2F7617080E041E050E0F0D1219630
:100ED0008091090190910A01C817D907E0F2DF91CA
:100EE000CF9108955091C10240E08091C002480F17
:100EF000511D8091BE026091BF02D9D108958091A9
:100F0000BE02F4D108958091BE02C5D108950F9319
:100F10001F93CF93DF938091BE029091BF02A09167
:100F2000C002B091C1028093220190932301A0934B
:100F30002401B09325019091C30280E02091C20268
:100F400030E0282B392B3093210120932001909100
:100F5000C402909326018091C5024091C602883058
:100F600099F1843051F081E0809310019093110148
:100F7000DF91CF911F910F910895992309F4A0C09B
:100F800010E0E12FF0E0E554FD4F809122019091B7
:100F9000230164858ADC8091220190912301A09134
:100FA0002401B09125010196A11DB11D809322015C
:100FB00090932301A0932401B09325011F5F90918A
:100FC00026011917F0F2CFCF042F40FD76C09923E8
:100FD00009F451C010E02091220130912301409189
:100FE00024015091250122C0E12FF0E0E554FD4F8E
:100FF000CA01B901448521E0E2DC2091220130914F
:10100000230140912401509125012F5F3F4F4F4F05
:101010005F4F20932201309323014093240150938A
:1010200025011F5F90912601191730F5809120014D
:1010300090912101892BC1F2C12FD0E0CC53DD4F1B
:10104000CA01B9014B8120E0BADC809127018150AF
:1010500080932701882389F66091220170912301F2
:1010600080912401909125014B8166DC80912001C3
:1010700080932701C2CF10E001FF1CC0809127019F
:1010800090E020912001309121018217930791F087
:10109000609122017091230180912401909125019A
:1010A0006150704080409040E12FF0E0E554FD4FEA
:1010B000438542DC9091260156CF2093270187CFAC
:1010C00090E051CF81E080931001C2DC8093110148
:1010D0000895EF92FF920F931F938091BC0281506D
:1010E00080931001E090BE028031D8F08FE08093B1
:1010F0001001FF240F2D10E0F801E554FD4F84810D
:10110000C6DB015F1E4FF80182838E2DE3DCF39472
:1011100080911001F81670F31F910F91FF90EF90DE
:101120000895882331F7F8CF81E0809310018091F2
:10113000BE026091BF02B2DC80931101089536D3E4
:1011400008950F931F9381E0809310018091BC025A
:101150008823B9F000E006C01F5F010F8091BC0238
:10116000081778F4802F90E0FC01E554FD4F1381BF
:1011700081549D4F612F70E07DD4809311018823AD
:1011800059F31F910F91089513D31092110181E02B
:101190008093100108958091BD0290E0FC01319789
:1011A000EE35F10518F0109210010895E65EFF4F3C
:1011B0000994FCD20895B8DF0895A1D010920801D7
:1011C000089587DF08958091BE029091BF02A0919B
:1011D000C002B091C1028093220190932301A09399
:1011E0002401B09325019091C20290932601809131
:1011F000C302883011F1843019F483E08093080130
:101200009093100108955EDF089581DE089591D0D6
:1012100008958091BE023FD0089564DE08950FDDE9
:1012200008958091BE0262D0089527DE0895C8DC3B
:101230000895AADF089585DF089582E0809308016C
:10124000DFCF582F292F70910E01761708F4672FE2
:101250006623F1F040910D01A42FB0E0A554BD4FDD
:10126000852F922F9C01F90181918D938E2F851BE3
:101270008617D0F3460F40930D01872F861B80936E
:101280000E01882311F080E0089585DF81E0089544
:1012900040910D01EFCF8093290108955D988091D1
:1012A000290132DC89B1881F8827881F08950F9390
:1012B0001F93CF93DF93082F162FEA015C985E9857
:1012C0004115510571F05D9801115C9A11115E9AFA
:1012D0008091290119DC5D9A8091290115DC219703
:1012E00091F7DF91CF911F910F910895882309F411
:1012F000089581E060E046E050E0D9DF08958CB5C4
:101300008F7B8CBD419A439A419A84B1837C84B986
:1013100085B1837C85B98AB18F708AB98BB18F70A2
:101320008BB90895ECDF4398419884B18C6284B9FD
:101330000895E5DF41988AB180678AB95F9A089578
:101340001816190664F420E030E048EB5BE0FA017F
:101350003197F1F72F5F3F4F28173907C4F30895EE
:1013600090932D0180932C01860F971F90932F014E
:1013700080932E01089580912A0190912B01089568
:10138000E0912C01F0912D019F012F5F3F4F809143
:101390002E0190912F018217930730F080813093B6
:1013A0002D0120932C01089587E090E090932B016C
:1013B00080932A0180E00895E0912C01F0912D01A5
:1013C0009F012F5F3F4F80912E0190912F01821737
:1013D000930738F0808130932D0120932C018831C0
:1013E00008F088E10895482FE0912C01F0912D013B
:1013F0009F012F5F3F4F80912E0190912F01821707
:10140000930738F0808130932D0120932C01823096
:1014100018F060E1862F08958823E1F7642F862F66
:101420000895E0912C01F0912D01BF016E5F7F4F77
:1014300080912E0190912F018617970780F080816F
:101440009181292F332727FD3A95582F4427422B86
:10145000532B70932D0160932C01CA01089587E0EE
:1014600090E090932B0180932A014FEF5FEFF5CF2F
:10147000EF92FF920F931F93E0912C01F0912D01B9
:10148000BF016C5F7F4F80912E0190912F018617D5
:101490009707B8F12081318142815381DA01C90176
:1014A0008070A070B070EE24F82E092F1A2FDA0188
:1014B000C90180709070B070892F9A2FAB2FBB2715
:1014C000A7FDBA95E82AF92A0A2B1B2BB22FAA27C7
:1014D00099278827E82AF92A0A2B1B2B252F33273F
:1014E00044275527E22AF32A042B152B70932D014C
:1014F00060932C01B701C8011F910F91FF90EF90ED
:10150000089587E090E090932B0180932A01EE24C8
:10151000FF248701B701C8011F910F91FF90EF9041
:10152000089520912E0130912F01E0912C01F0912E
:101530002D01E217F30758F481918823D1F7F09336
:101540002D01E0932C0120E030E0C9010895F093D3
:101550002D01E0932C0187E090E090932B01809384
:101560002A0127E030E0C90108956C507E4F8F4F6B
:101570009F4F28EE33E040E050E096D4DA01C901F5
:10158000DFDE0895CF93DF93FC01AB01495F5F4F2E
:1015900057FD30C0EA01D595C795D595C795D59526
:1015A000C795C333D10564F086E090E090932B019A
:1015B00080932A01C6E0D0E0CE01DF91CF9108955B
:1015C00040912C0150912D019A012C0F3D1F8091CB
:1015D0002E0190912F018217930780F487E090E00D
:1015E00090932B0180932A01C7E0D0E0CE01DF91D8
:1015F000CF910895AB01425F5F4FCCCFCF01BA01CD
:10160000AE0149D480912C0190912D018C0F9D1F2A
:1016100090932D0180932C01CFCF71DE089589DE48
:101620006AE070E080E090E0A0DF08955C9A80E0DE
:1016300090E05C9A5D985D9A019685309105C9F7B6
:10164000109230010895909130018917D1F08823CC
:1016500079F480E090E05C9A5D985D9A019685301F
:101660009105C9F71092300120E030E0C9010895DA
:10167000873021F18E30A1F49D3091F025E030E0EB
:10168000F5CF863009F474C08D30D9F020E030E019
:10169000C9010895813059F15C9A5D985D9A92E094
:1016A000891709F46EC0E92FF0E0E031F10580F010
:1016B0009093300125E030E0C90108959630F1F6AD
:1016C000EFCF5C9A5D985D9A8EE080933001DECF1B
:1016D000E858FF4F0994843009F15C9A5D985D9A4F
:1016E00095E0DECF5C9A5D985D9A9CE0D9CF5C98DE
:1016F0005D985D9A91E0D4CF8D3009F447C05C9A33
:101700005D985D9A9FE0CCCF863009F444C05C9A26
:101710005D985D9A98E0C4CF8430C9F75C985D9875
:101720005D9A94E0BDCF5C9A5D985D9A97E0B8CFE2
:101730008930C8F05C9A5D985D9A99E0B1CF8B30A2
:1017400089F65C985D985D9A9BE0AACF8B30B9F6DC
:10175000F8CF5C9A5D985D9A9EE0A2CF5C985D9808
:101760005D9A9AE09DCF5C985D985D9A93E098CFE2
:101770005C9A5D985D9A87E08093300120E030E0CC
:1017800075CF8093300120E030E070CF5C985D9899
:101790005D9A9DE085CF5C985D985D9A96E080CFDC
:1017A000809130018F5F80933001089536DF089576
:1017B00036DF3CDF08952F923F924F925F926F92F7
:1017C0007F928F929F92AF92BF92CF92DF92EF92D1
:1017D000FF920F931F93DF93CF93CDB7DEB7EE97B2
:1017E0000FB6F894DEBF0FBECDBF2C0158AF4FAB84
:1017F000622E3DAF902E7E2CA9AEBAAECBAEDCAE43
:10180000009711F5A114B104C104D10409F0FCC082
:1018100022243324C101EE960FB6F894DEBF0FBE2A
:10182000CDBFCF91DF911F910F91FF90EF90DF908F
:10183000CF90BF90AF909F908F907F906F905F9070
:101840004F903F902F900895C201AA2797FDA09531
:10185000BA2F0796A11DB11D53E0B695A795979590
:1018600087955A95D1F701979B01280F391F3CABFB
:101870002BAB41E050E04C0F5D1F480F591F5EAB92
:101880004DAB22243324892DDEDEADA9BEA91C92E6
:10189000CBA8DCA8EDA8FEA8C201342D292F832FE8
:1018A000922F8C0191E048EFA42E4FEFB42EA00EA2
:1018B000B11E12C05E9A5D98015010404F9B04C04B
:1018C000D7018C91892B8C935D9A990F0A151B0572
:1018D00071F001151105E9F0971419F001301105A7
:1018E00099F0F6018081892329F75E98E4CF0115EC
:1018F000110579F00894C108D108F70112927F010F
:10190000C801302F292FCBCF5C9A9EAF49DF9EAD07
:10191000E8CF2FA938AD2115310529F1141415048C
:101920000CF05BC0A901862D9DAD9C01F901BE01A3
:101930006F5F7F4F20E030E006C0285F3F4F2415E7
:1019400035050CF04AC0DB019D91BD01DA018D9196
:10195000AD019827309711F081919823992369F36D
:1019600032E0232E312C971479F121143104D9F16E
:1019700029AD3AAD4BAD5CAD2115310541055105A1
:1019800079F18820E1F5872D5EDE81E05CDE69ADCE
:101990007AAD8BAD9CADE9DD89AD9AADABADBCAD9B
:1019A000B595A79597958795B595A795979587959B
:1019B00029AD3AAD4BAD5CAD280F391F4A1F5B1FF7
:1019C00029AF3AAF4BAF5CAF2114310409F422CFF9
:1019D000882009F41FCF8A9456CF22243324C3CF02
:1019E000872D31DEF5CF872D2EDE89AD9AADABADDB
:1019F000BCAD0097A105B10509F40CCFC6CF86E0B8
:101A000022DE84E020DEC1CF81E01DDE69AD7AAD4B
:101A10008BAD9CADAADD22243324FCCE8F92AF92F5
:101A2000BF92CF92DF92EF920F93CF93DF936C012F
:101A3000EB015A01822EE02ECB01B601A3DDA114E9
:101A4000B10419F0C501B6019DDDC601BE01A501B5
:101A500020E030E0082DAA24BB2465018824ABDEF9
:101A6000DF91CF910F91EF90DF90CF90BF90AF902B
:101A70008F9008954F925F926F927F928F92AF9264
:101A8000BF92CF92DF92EF920F931F93CF93DF938A
:101A900067DC92DCE82FF0E0E731F10590F024E01C
:101AA00030E0C901DF91CF911F910F91EF90DF904E
:101AB000CF90BF90AF908F907F906F905F904F903E
:101AC0000895E857FF4F09947093380160933701E8
:101AD00052DC9C01E6CF25DDFBCF60913101709196
:101AE00032018FEC91E04EDDF3CF823009F4BCC1BE
:101AF00098DC909366028093650260916502709114
:101B0000660289E391E03EDDA0903301B09034019C
:101B1000C0903501D09036018091650290916602A7
:101B200069E371E040E050E020E030E00BE0E0905D
:101B30000301882440DE9C0120C060913101709136
:101B4000320189E391E01EDDA0903301B0903401B1
:101B5000C0903501D09036018091310190913201D1
:101B600069E371E04DE951E02FEC31E004E0E090F1
:101B70000401809002011FDE9C012115310509F04E
:101B800090CFA6CF75DC60933301709334018093BE
:101B90003501909336019CCFF3DB8093020198CFFF
:101BA00067DC7093320160933101615971400CF42C
:101BB0008FCF26E030E075CF609131017091320116
:101BC00089E391E0DFDC60913101709132018DE9B0
:101BD00091E0B9CF609131017091320183E392E0DD
:101BE000D1DC609131017091320181E092E0CADC78
:101BF0008091310190913201AA2797FDA095BA2FCB
:101C00000796A11DB11D73E0B695A7959795879589
:101C10007A95D1F7FC013197EF5FFD4F60E070E0FE
:101C2000AC014F5F5D4F80959095480F591FE417A9
:101C3000F50709F449CF2081222311F43197F7CF1A
:101C4000822F90E081709070680F791F2695C1F700
:101C50003197EDCF609131017091320189E391E0CC
:101C600091DCA0903301B0903401C0903501D09048
:101C70003601809131019091320169E371E04DE9C3
:101C800051E02FEC31E004E0E0900401809002018B
:101C900092DD9C01009709F004CF72DB882309F4E0
:101CA00017CF66247724482E5524089441085108FC
:101CB00060913701709138018BE691E063DC00910F
:101CC000310110913201C801AA2797FDA095BA2FC2
:101CD0000796A11DB11D63E0B695A79597958795C9
:101CE0006A95D1F7892BE9F00197FC01E75CFE4F7B
:101CF000DC01AD5CBD4F40E09C918081282F30E03D
:101D0000290F311D240F311D40E02F3F310511F007
:101D100008F041E020833197119781E0E833F8071C
:101D200059F76091370170913801C801019797FD0B
:101D300032C0EC01CF5FDD4FDC01A75CBE4F80E01D
:101D4000E0E02881222301F141E005C0382F2695EB
:101D500089F0440F832F20FFF9CF882309F48AC02C
:101D6000382F330F8E2309F490C08C91842B8C93E1
:101D7000269579F72197119721E0A833B20759F0FA
:101D8000832F2881222301F7382F2197119721E0F3
:101D9000A833B207A9F7A0903301B0903401C090E6
:101DA0003501D0903601C80169E371E04DE951E099
:101DB0002FEC31E004E0E090040180900201FBDCB4
:101DC0009C014614570409F4D8CE0894611C711C78
:101DD000009709F46DCF65CE809131019091320169
:101DE00069E371E040E050E024E004E017DE9C018C
:101DF000C4CE809131019091320169E371E040E0FD
:101E000050E024E00091040109DE9C01B6CE8091EF
:101E100031019091320169E371E04DE951E024E034
:101E200004E0FCDD9C01A9CE80913101909132014A
:101E300069E371E04DE951E024E000910401EEDD39
:101E40009C019BCE80E061E0CEDAFDDB9C0195CE6B
:101E500081E06DE0C8DA809303013ACE81E066E06C
:101E6000C2DA8093040134CE8BDA8093650210923B
:101E7000660243CE61507040FB01E559FE4FE081A0
:101E800081E032E08E2309F070CF942F90958C91F1
:101E900089238C935CCFFB01DC0102C001900D9281
:101EA00041505040D8F7089597FB092E05260ED0D3
:101EB00057FD04D014D00AD0001C38F4509540953A
:101EC000309521953F4F4F4F5F4F0895F6F790950E
:101ED0008095709561957F4F8F4F9F4F0895A1E238
:101EE0001A2EAA1BBB1BFD010DC0AA1FBB1FEE1F94
:101EF000FF1FA217B307E407F50720F0A21BB30BDF
:101F0000E40BF50B661F771F881F991F1A9469F75A
:101F100060957095809590959B01AC01BD01CF01B6
:061F20000895F894FFCFC4
:061F26005AFF200101003A
:00000001FF
