:020000020000FC
:0200000045C0F9
:10008C000FEF0DBF00E10EBF2224000000000000A6
:10009C000000000000000000000025D0FFCF889475
:1000AC00A0E1B1E0C2E1D1E0E0E2F1E03D904990A5
:1000BC00430C41923C904880431C419210F401E067
:1000CC00008300000895A0E3B1E0C2E3D1E0E0E4D6
:1000DC00F1E03D904990341831923C9048803408BE
:1000EC003192089508950027A0E4B1E00D930D938B
:1000FC00A0E2B1E00D930D930D93E0ECF1E0A0E3E1
:10010C00B1E005910D9305910D93E2ECF1E0A2E3C2
:10011C00B1E005910D9305910D93D5DF0000A0E49E
:10012C00B1E0C0E1D1E00D9109930D910993E4EC9C
:10013C00F1E0A2E1B1E005910D9305910D93AFDFD4
:10014C00000008953F924F921F920F922F92BF93EF
:10015C00AF93DF93CF93FF93EF931F932F932224AF
:10016C00C2E0D1E0E4E0F1E012E0A0E0B1E022E096
:10017C003D904880349C31904190030C141C30808D
:10018C00321C30821292029231962A9589F731975D
:10019C0021961A9551F72F911F91EF91FF91CF91C5
:1001AC00DF91AF91BF912F900F901F904F903F9088
:0A01BC000895089551FDFF1EFFFF96
:00000001FF
